{
  "contractName": "SecurePayment",
  "abi": [
    {
      "anonymous": false,
      "inputs": [
        {
          "indexed": false,
          "internalType": "address",
          "name": "a",
          "type": "address"
        },
        {
          "indexed": false,
          "internalType": "address",
          "name": "b",
          "type": "address"
        },
        {
          "indexed": false,
          "internalType": "uint256",
          "name": "transactionId",
          "type": "uint256"
        }
      ],
      "name": "Created",
      "type": "event"
    },
    {
      "anonymous": false,
      "inputs": [
        {
          "indexed": false,
          "internalType": "address",
          "name": "a",
          "type": "address"
        },
        {
          "indexed": false,
          "internalType": "address",
          "name": "b",
          "type": "address"
        },
        {
          "indexed": false,
          "internalType": "uint256",
          "name": "transactionId",
          "type": "uint256"
        }
      ],
      "name": "PayedOut",
      "type": "event"
    },
    {
      "constant": true,
      "inputs": [
        {
          "internalType": "uint256",
          "name": "",
          "type": "uint256"
        }
      ],
      "name": "transactions",
      "outputs": [
        {
          "components": [
            {
              "internalType": "address payable",
              "name": "walletAddress",
              "type": "address"
            },
            {
              "internalType": "bool",
              "name": "verified",
              "type": "bool"
            }
          ],
          "internalType": "struct SecurePayment.Person",
          "name": "personA",
          "type": "tuple"
        },
        {
          "components": [
            {
              "internalType": "address payable",
              "name": "walletAddress",
              "type": "address"
            },
            {
              "internalType": "bool",
              "name": "verified",
              "type": "bool"
            }
          ],
          "internalType": "struct SecurePayment.Person",
          "name": "personB",
          "type": "tuple"
        },
        {
          "components": [
            {
              "internalType": "address payable",
              "name": "walletAddress",
              "type": "address"
            },
            {
              "internalType": "bool",
              "name": "verified",
              "type": "bool"
            }
          ],
          "internalType": "struct SecurePayment.Person",
          "name": "verifier",
          "type": "tuple"
        },
        {
          "internalType": "uint256",
          "name": "amount",
          "type": "uint256"
        },
        {
          "internalType": "bool",
          "name": "payedIn",
          "type": "bool"
        },
        {
          "internalType": "bool",
          "name": "payedOut",
          "type": "bool"
        },
        {
          "internalType": "string",
          "name": "description",
          "type": "string"
        }
      ],
      "payable": false,
      "stateMutability": "view",
      "type": "function"
    },
    {
      "constant": false,
      "inputs": [
        {
          "internalType": "address payable",
          "name": "_personA",
          "type": "address"
        },
        {
          "internalType": "address payable",
          "name": "_personB",
          "type": "address"
        },
        {
          "internalType": "address payable",
          "name": "_middleMan",
          "type": "address"
        },
        {
          "internalType": "uint256",
          "name": "_amount",
          "type": "uint256"
        },
        {
          "internalType": "string",
          "name": "_description",
          "type": "string"
        }
      ],
      "name": "create",
      "outputs": [
        {
          "internalType": "uint256",
          "name": "",
          "type": "uint256"
        }
      ],
      "payable": false,
      "stateMutability": "nonpayable",
      "type": "function"
    },
    {
      "constant": false,
      "inputs": [
        {
          "internalType": "uint256",
          "name": "transactionId",
          "type": "uint256"
        }
      ],
      "name": "checkIn",
      "outputs": [
        {
          "internalType": "bool",
          "name": "",
          "type": "bool"
        }
      ],
      "payable": false,
      "stateMutability": "nonpayable",
      "type": "function"
    },
    {
      "constant": false,
      "inputs": [
        {
          "internalType": "uint256",
          "name": "transactionId",
          "type": "uint256"
        }
      ],
      "name": "payIn",
      "outputs": [
        {
          "internalType": "bool",
          "name": "",
          "type": "bool"
        }
      ],
      "payable": true,
      "stateMutability": "payable",
      "type": "function"
    },
    {
      "constant": false,
      "inputs": [
        {
          "internalType": "uint256",
          "name": "transactionId",
          "type": "uint256"
        }
      ],
      "name": "payOut",
      "outputs": [
        {
          "internalType": "bool",
          "name": "",
          "type": "bool"
        }
      ],
      "payable": false,
      "stateMutability": "nonpayable",
      "type": "function"
    },
    {
      "constant": true,
      "inputs": [
        {
          "internalType": "uint256",
          "name": "transactionId",
          "type": "uint256"
        }
      ],
      "name": "getStatus",
      "outputs": [
        {
          "internalType": "bool",
          "name": "",
          "type": "bool"
        }
      ],
      "payable": false,
      "stateMutability": "view",
      "type": "function"
    }
  ],
  "bytecode": "0x608060405234801561001057600080fd5b506115e6806100206000396000f3fe6080604052600436106100555760003560e01c80635c622a0e1461005a5780639ace38c214610097578063da333ca6146100da578063df78c1dd14610117578063e0d92fbb14610147578063e95a644f14610184575b600080fd5b34801561006657600080fd5b50610081600480360361007c919081019061120d565b6101c1565b60405161008e9190611360565b60405180910390f35b3480156100a357600080fd5b506100be60048036036100b9919081019061120d565b6101ee565b6040516100d1979695949392919061139b565b60405180910390f35b3480156100e657600080fd5b5061010160048036036100fc919081019061120d565b610453565b60405161010e9190611360565b60405180910390f35b610131600480360361012c919081019061120d565b6109d5565b60405161013e9190611360565b60405180910390f35b34801561015357600080fd5b5061016e6004803603610169919081019061117e565b610a64565b60405161017b9190611414565b60405180910390f35b34801561019057600080fd5b506101ab60048036036101a6919081019061120d565b610dd5565b6040516101b89190611360565b60405180910390f35b60006001600083815260200190815260200160002060040160019054906101000a900460ff169050919050565b6001602052806000526040600020600091509050806000016040518060400160405290816000820160009054906101000a900473ffffffffffffffffffffffffffffffffffffffff1673ffffffffffffffffffffffffffffffffffffffff1673ffffffffffffffffffffffffffffffffffffffff1681526020016000820160149054906101000a900460ff16151515158152505090806001016040518060400160405290816000820160009054906101000a900473ffffffffffffffffffffffffffffffffffffffff1673ffffffffffffffffffffffffffffffffffffffff1673ffffffffffffffffffffffffffffffffffffffff1681526020016000820160149054906101000a900460ff16151515158152505090806002016040518060400160405290816000820160009054906101000a900473ffffffffffffffffffffffffffffffffffffffff1673ffffffffffffffffffffffffffffffffffffffff1673ffffffffffffffffffffffffffffffffffffffff1681526020016000820160149054906101000a900460ff161515151581525050908060030154908060040160009054906101000a900460ff16908060040160019054906101000a900460ff1690806005018054600181600116156101000203166002900480601f0160208091040260200160405190810160405280929190818152602001828054600181600116156101000203166002900480156104495780601f1061041e57610100808354040283529160200191610449565b820191906000526020600020905b81548152906001019060200180831161042c57829003601f168201915b5050505050905087565b6000816001600082815260200190815260200160002060000160000160149054906101000a900460ff1680156104ac57506001600082815260200190815260200160002060010160000160149054906101000a900460ff165b80156104db57506001600082815260200190815260200160002060020160000160149054906101000a900460ff165b6104e457600080fd5b826001600082815260200190815260200160002060040160009054906101000a900460ff16801561057957503373ffffffffffffffffffffffffffffffffffffffff166001600083815260200190815260200160002060020160000160009054906101000a900473ffffffffffffffffffffffffffffffffffffffff1673ffffffffffffffffffffffffffffffffffffffff16145b80156105a657506001600082815260200190815260200160002060040160019054906101000a900460ff16155b6105af57600080fd5b6105b7610fd6565b600160008681526020019081526020016000206040518060e0016040529081600082016040518060400160405290816000820160009054906101000a900473ffffffffffffffffffffffffffffffffffffffff1673ffffffffffffffffffffffffffffffffffffffff1673ffffffffffffffffffffffffffffffffffffffff1681526020016000820160149054906101000a900460ff1615151515815250508152602001600182016040518060400160405290816000820160009054906101000a900473ffffffffffffffffffffffffffffffffffffffff1673ffffffffffffffffffffffffffffffffffffffff1673ffffffffffffffffffffffffffffffffffffffff1681526020016000820160149054906101000a900460ff1615151515815250508152602001600282016040518060400160405290816000820160009054906101000a900473ffffffffffffffffffffffffffffffffffffffff1673ffffffffffffffffffffffffffffffffffffffff1673ffffffffffffffffffffffffffffffffffffffff1681526020016000820160149054906101000a900460ff1615151515815250508152602001600382015481526020016004820160009054906101000a900460ff161515151581526020016004820160019054906101000a900460ff16151515158152602001600582018054600181600116156101000203166002900480601f01602080910402602001604051908101604052809291908181526020018280546001816001161561010002031660029004801561083d5780601f106108125761010080835404028352916020019161083d565b820191906000526020600020905b81548152906001019060200180831161082057829003601f168201915b50505050508152505090506001600086815260200190815260200160002060010160000160009054906101000a900473ffffffffffffffffffffffffffffffffffffffff1673ffffffffffffffffffffffffffffffffffffffff166108fc82606001519081150290604051600060405180830381858888f193505050501580156108cb573d6000803e3d6000fd5b50600180600087815260200190815260200160002060040160016101000a81548160ff0219169083151502179055507f904ece09ff46cae750436c1e3c509fe7a1ad5eced7dd6fa02aa1dd925661cbeb6001600087815260200190815260200160002060000160000160009054906101000a900473ffffffffffffffffffffffffffffffffffffffff166001600088815260200190815260200160002060010160000160009054906101000a900473ffffffffffffffffffffffffffffffffffffffff168760405161099f93929190611329565b60405180910390a16001600086815260200190815260200160002060040160019054906101000a900460ff169350505050919050565b600060016000838152602001908152602001600020600301543410158015610a1e57506001600083815260200190815260200160002060040160009054906101000a900460ff16155b15610a5a57600180600084815260200190815260200160002060040160006101000a81548160ff02191690831515021790555060019050610a5f565b600090505b919050565b600085858073ffffffffffffffffffffffffffffffffffffffff168273ffffffffffffffffffffffffffffffffffffffff161415610ad7576040517f08c379a0000000000000000000000000000000000000000000000000000000008152600401610ace9061137b565b60405180910390fd5b610adf610fd6565b6040518060e0016040528060405180604001604052808c73ffffffffffffffffffffffffffffffffffffffff16815260200160001515815250815260200160405180604001604052808b73ffffffffffffffffffffffffffffffffffffffff16815260200160001515815250815260200160405180604001604052808a73ffffffffffffffffffffffffffffffffffffffff168152602001600015158152508152602001878152602001600015158152602001600015158152602001868152509050600080815480929190600101919050555080600160008054815260200190815260200160002060008201518160000160008201518160000160006101000a81548173ffffffffffffffffffffffffffffffffffffffff021916908373ffffffffffffffffffffffffffffffffffffffff16021790555060208201518160000160146101000a81548160ff021916908315150217905550505060208201518160010160008201518160000160006101000a81548173ffffffffffffffffffffffffffffffffffffffff021916908373ffffffffffffffffffffffffffffffffffffffff16021790555060208201518160000160146101000a81548160ff021916908315150217905550505060408201518160020160008201518160000160006101000a81548173ffffffffffffffffffffffffffffffffffffffff021916908373ffffffffffffffffffffffffffffffffffffffff16021790555060208201518160000160146101000a81548160ff02191690831515021790555050506060820151816003015560808201518160040160006101000a81548160ff02191690831515021790555060a08201518160040160016101000a81548160ff02191690831515021790555060c0820151816005019080519060200190610d83929190611029565b509050507f822b3073be62c5c7f143c2dcd71ee266434ee935d90a1eec3be34710ac8ec1a28989600054604051610dbc93929190611329565b60405180910390a1600054935050505095945050505050565b60003373ffffffffffffffffffffffffffffffffffffffff166001600084815260200190815260200160002060000160000160009054906101000a900473ffffffffffffffffffffffffffffffffffffffff1673ffffffffffffffffffffffffffffffffffffffff161415610e7e57600180600084815260200190815260200160002060000160000160146101000a81548160ff02191690831515021790555060019050610fd1565b3373ffffffffffffffffffffffffffffffffffffffff166001600084815260200190815260200160002060010160000160009054906101000a900473ffffffffffffffffffffffffffffffffffffffff1673ffffffffffffffffffffffffffffffffffffffff161415610f2557600180600084815260200190815260200160002060010160000160146101000a81548160ff02191690831515021790555060019050610fd1565b3373ffffffffffffffffffffffffffffffffffffffff166001600084815260200190815260200160002060020160000160009054906101000a900473ffffffffffffffffffffffffffffffffffffffff1673ffffffffffffffffffffffffffffffffffffffff161415610fcc57600180600084815260200190815260200160002060020160000160146101000a81548160ff02191690831515021790555060019050610fd1565b600090505b919050565b6040518060e00160405280610fe96110a9565b8152602001610ff66110a9565b81526020016110036110a9565b815260200160008152602001600015158152602001600015158152602001606081525090565b828054600181600116156101000203166002900490600052602060002090601f016020900481019282601f1061106a57805160ff1916838001178555611098565b82800160010185558215611098579182015b8281111561109757825182559160200191906001019061107c565b5b5090506110a591906110db565b5090565b6040518060400160405280600073ffffffffffffffffffffffffffffffffffffffff1681526020016000151581525090565b6110fd91905b808211156110f95760008160009055506001016110e1565b5090565b90565b60008135905061110f81611575565b92915050565b600082601f83011261112657600080fd5b81356111396111348261145c565b61142f565b9150808252602083016020830185838301111561115557600080fd5b611160838284611522565b50505092915050565b6000813590506111788161158c565b92915050565b600080600080600060a0868803121561119657600080fd5b60006111a488828901611100565b95505060206111b588828901611100565b94505060406111c688828901611100565b93505060606111d788828901611169565b925050608086013567ffffffffffffffff8111156111f457600080fd5b61120088828901611115565b9150509295509295909350565b60006020828403121561121f57600080fd5b600061122d84828501611169565b91505092915050565b61123f816114ec565b82525050565b61124e816114a4565b82525050565b61125d816114b6565b82525050565b61126c816114b6565b82525050565b600061127d82611488565b6112878185611493565b9350611297818560208601611531565b6112a081611564565b840191505092915050565b60006112b8601983611493565b91507f416464726573732063616e2774206265207468652073616d65000000000000006000830152602082019050919050565b6040820160008201516113016000850182611245565b5060208201516113146020850182611254565b50505050565b611323816114e2565b82525050565b600060608201905061133e6000830186611236565b61134b6020830185611236565b611358604083018461131a565b949350505050565b60006020820190506113756000830184611263565b92915050565b60006020820190508181036000830152611394816112ab565b9050919050565b6000610140820190506113b1600083018a6112eb565b6113be60408301896112eb565b6113cb60808301886112eb565b6113d860c083018761131a565b6113e560e0830186611263565b6113f3610100830185611263565b8181036101208301526114068184611272565b905098975050505050505050565b6000602082019050611429600083018461131a565b92915050565b6000604051905081810181811067ffffffffffffffff8211171561145257600080fd5b8060405250919050565b600067ffffffffffffffff82111561147357600080fd5b601f19601f8301169050602081019050919050565b600081519050919050565b600082825260208201905092915050565b60006114af826114c2565b9050919050565b60008115159050919050565b600073ffffffffffffffffffffffffffffffffffffffff82169050919050565b6000819050919050565b60006114f7826114fe565b9050919050565b600061150982611510565b9050919050565b600061151b826114c2565b9050919050565b82818337600083830152505050565b60005b8381101561154f578082015181840152602081019050611534565b8381111561155e576000848401525b50505050565b6000601f19601f8301169050919050565b61157e816114a4565b811461158957600080fd5b50565b611595816114e2565b81146115a057600080fd5b5056fea365627a7a72315820dabe4bae683c7662fcbb7a90a8f9228d0ae541d731c2fd3f7f45587827325f5d6c6578706572696d656e74616cf564736f6c634300050c0040",
  "source": "pragma solidity ^0.5.11;\npragma experimental ABIEncoderV2;\n\ncontract SecurePayment {\n  struct Person {\n    address payable walletAddress;\n    bool verified;\n  }\n\n  struct Transaction {\n    Person personA;\n    Person personB;\n    Person verifier;\n    uint256 amount;\n    bool payedIn;\n    bool payedOut;\n    string description;\n  }\n\n  uint totalTransactions;\n  mapping (uint => Transaction) public transactions;\n\n  event Created(address a, address b, uint transactionId);\n  event PayedOut(address a, address b, uint transactionId);\n  \n  function create(address payable _personA,\n                  address payable _personB,\n                  address payable _middleMan, \n                  uint256 _amount,\n                  string memory _description) public isNotSame(_personA, _personB) returns (uint) {\n\n    Transaction memory transaction = Transaction( \n                                        Person(_personA, false), \n                                        Person(_personB, false), \n                                        Person(_middleMan, false), \n                                        _amount,\n                                        false,\n                                        false,\n                                        _description);\n\n    totalTransactions++;\n    transactions[totalTransactions] = transaction;\n\n    \n    emit Created(_personA, _personB, totalTransactions);\n    return totalTransactions;\n  }\n\n  modifier isReady(uint transactionId) {\n    require(\n      transactions[transactionId].personA.verified && \n      transactions[transactionId].personB.verified &&\n      transactions[transactionId].verifier.verified);\n    _;\n  }\n\n  modifier canPayout(uint transactionId) {\n    require(\n      transactions[transactionId].payedIn &&\n      transactions[transactionId].verifier.walletAddress == msg.sender &&\n      !transactions[transactionId].payedOut);\n    _;\n  }\n\n  modifier isNotSame(address a, address b) {\n    require(a != b, \"Address can't be the same\");\n    _;\n  }\n\n function checkIn(uint transactionId) public returns (bool) {    \n    if(transactions[transactionId].personA.walletAddress == msg.sender) {\n      transactions[transactionId].personA.verified = true;\n      return true;\n    }\n    if(transactions[transactionId].personB.walletAddress == msg.sender) {\n      transactions[transactionId].personB.verified = true;\n      return true;\n    }\n\n    if(transactions[transactionId].verifier.walletAddress == msg.sender) {\n      transactions[transactionId].verifier.verified = true;\n      return true;\n    }\n\n    return false;\n  }\n\n\n  function payIn(uint transactionId) public payable returns (bool)  {\n    if (msg.value >= transactions[transactionId].amount && !transactions[transactionId].payedIn) {\n      transactions[transactionId].payedIn = true;\n      return true;\n    }\n\n    return false;\n  }\n\n  function payOut(uint transactionId) public isReady(transactionId) canPayout(transactionId) returns (bool) {\n    Transaction memory transaction = transactions[transactionId];\n\n    transactions[transactionId].personB.walletAddress.transfer(transaction.amount);\n    transactions[transactionId].payedOut = true;\n    \n    emit PayedOut(transactions[transactionId].personA.walletAddress, \n                  transactions[transactionId].personB.walletAddress, \n                  transactionId);\n\n    return transactions[transactionId].payedOut;\n  }\n\n  function getStatus(uint transactionId) public view returns (bool){\n    return transactions[transactionId].payedOut;\n  }\n}\n",
  "sourcePath": "/Users/daniyal/Documents/Development/solidity/BC1_Daniyal/Day_07_Mon_9_12_2019/securePaymentTruffle/contracts/SecurePayment.sol",
  "compiler": {
    "name": "solc",
    "version": "0.5.12+commit.7709ece9.Emscripten.clang"
  },
  "schemaVersion": "3.0.20",
  "updatedAt": "2019-12-27T22:05:23.581Z",
  "networkType": "ethereum",
  "devdoc": {
    "methods": {}
  },
  "userdoc": {
    "methods": {}
  }
}